:020000040800F2
:10000000600600206D0100087501000877010008F6
:10001000790100087B0100087D0100080000000054
:100020000000000000000000000000007F01000848
:10003000810100080000000083010008850100081C
:100040008701000887010008870100088701000870
:100050008701000887010008870100088701000860
:100060008701000887010008870100088701000850
:100070008701000887010008870100088701000840
:100080008701000887010008870100088701000830
:100090008701000887010008870100088701000820
:1000A0008701000887010008870100088701000810
:1000B0008701000887010008870100088701000800
:1000C00087010008870100088701000887010008F0
:1000D00087010008870100088701000887010008E0
:1000E00087010008870100088701000800F002F876
:1000F00000F02CF80AA090E8000C82448344AAF196
:100100000107DA4501D100F021F8AFF2090EBAE893
:100110000F0013F0010F18BFFB1A43F0010318473B
:10012000440300005403000000230024002500269F
:10013000103A28BF78C1FBD8520728BF30C148BF4A
:100140000B6070471FB51FBD10B510BD00F031F832
:100150001146FFF7F7FF00F013F900F04FF803B472
:10016000FFF7F2FF03BC00F057F800000948804792
:1001700009480047FEE7FEE7FEE7FEE7FEE7FEE789
:10018000FEE7FEE7FEE7FEE704480549054A064BA1
:100190007047000021030008ED0000086000002007
:1001A0006006002060020020600200207047704757
:1001B0007047754600F02CF8AE4605006946534678
:1001C00020F00700854618B020B5FFF7DDFFBDE839
:1001D00020404FF000064FF000074FF000084FF0AE
:1001E000000B21F00701AC46ACE8C009ACE8C0093F
:1001F000ACE8C009ACE8C0098D46704710B50446AC
:10020000AFF300802046BDE81040FFF7A8BF000014
:10021000004870470000002001491820ABBEFEE7EF
:10022000260002007047002000E0401C42F21071DE
:100230008842FAD3704710B500F002F810BD0000F4
:100240000CB50020019000903348006840F48030E5
:100250003149086000BF3048006800F40030009069
:100260000198401C0190009818B90198B0F5A06F52
:10027000F1D12948006800F4003010B1012000904D
:1002800001E0002000900098012843D12348006835
:1002900040F01000214908600846006820F007007F
:1002A00008600846006840F0020008601A4840688C
:1002B000194948600846406848600846406840F46C
:1002C000806048600846406820F47C10486008461A
:1002D000406840F4E81048600846006840F08070CC
:1002E000086000BF0C48006800F000700028F9D0DA
:1002F0000948406820F00300074948600846406804
:1003000040F00200486000BF0348406800F00C0065
:100310000828F9D10CBD0000001002400020024066
:1003200010B51348006840F0010011490860084604
:100330004068104908400E494860084600680E4968
:1003400008400B4908600846006820F480200860D7
:100350000846406820F4FE0048604FF41F008860A3
:10036000FFF769FF4FF000600449086010BD00000E
:10037000001002400000FFF8FFFFF6FE08ED00E06D
:100380003448806940F01C00324988613248006876
:1003900020F47000304908600846006840F40010FE
:1003A00008602D480C30006800202B490C31086093
:1003B0002A48006820F0F0002849086008460068D4
:1003C00040F02000086025480830006800202349DC
:1003D000083108602248406820F070602049486079
:1003E0000846406840F0007048600846C068002039
:1003F000C8602EE018480C30006840F02000164914
:100400000C310860FFF70FFF13480C300068002024
:1004100011490C31086011480830006840F4007040
:100420000E4908310860FFF7FEFE0C4808300068EE
:1004300000200A49083108600948C06840F480403B
:100440000749C860FFF7EFFE0548C068002004496F
:10045000C860CFE70010024000080140040C0140D2
:100460000010014074040008000000206006000035
:040470002801000857
:04000005080000ED02
:00000001FF
